{
  "contractName": "EventContract",
  "abi": [
    {
      "inputs": [
        {
          "internalType": "uint256",
          "name": "",
          "type": "uint256"
        }
      ],
      "name": "events",
      "outputs": [
        {
          "internalType": "address",
          "name": "organizer",
          "type": "address"
        },
        {
          "internalType": "string",
          "name": "name",
          "type": "string"
        },
        {
          "internalType": "uint256",
          "name": "date",
          "type": "uint256"
        },
        {
          "internalType": "uint256",
          "name": "price",
          "type": "uint256"
        },
        {
          "internalType": "uint256",
          "name": "ticketCount",
          "type": "uint256"
        },
        {
          "internalType": "uint256",
          "name": "ticketRemaining",
          "type": "uint256"
        }
      ],
      "stateMutability": "view",
      "type": "function"
    },
    {
      "inputs": [],
      "name": "nextId",
      "outputs": [
        {
          "internalType": "uint256",
          "name": "",
          "type": "uint256"
        }
      ],
      "stateMutability": "view",
      "type": "function"
    },
    {
      "inputs": [
        {
          "internalType": "address",
          "name": "",
          "type": "address"
        },
        {
          "internalType": "uint256",
          "name": "",
          "type": "uint256"
        }
      ],
      "name": "tickets",
      "outputs": [
        {
          "internalType": "uint256",
          "name": "",
          "type": "uint256"
        }
      ],
      "stateMutability": "view",
      "type": "function"
    },
    {
      "inputs": [
        {
          "internalType": "string",
          "name": "_name",
          "type": "string"
        },
        {
          "internalType": "uint256",
          "name": "_date",
          "type": "uint256"
        },
        {
          "internalType": "uint256",
          "name": "_price",
          "type": "uint256"
        },
        {
          "internalType": "uint256",
          "name": "_ticketCount",
          "type": "uint256"
        }
      ],
      "name": "createEvent",
      "outputs": [],
      "stateMutability": "nonpayable",
      "type": "function"
    },
    {
      "inputs": [
        {
          "internalType": "uint256",
          "name": "id",
          "type": "uint256"
        },
        {
          "internalType": "uint256",
          "name": "quantity",
          "type": "uint256"
        }
      ],
      "name": "buyTicket",
      "outputs": [],
      "stateMutability": "payable",
      "type": "function"
    },
    {
      "inputs": [
        {
          "internalType": "uint256",
          "name": "id",
          "type": "uint256"
        },
        {
          "internalType": "uint256",
          "name": "quantity",
          "type": "uint256"
        },
        {
          "internalType": "address",
          "name": "to",
          "type": "address"
        }
      ],
      "name": "transferTicket",
      "outputs": [],
      "stateMutability": "nonpayable",
      "type": "function"
    }
  ],
  "bytecode": "0x608060405234801561001057600080fd5b506113f8806100206000396000f3fe6080604052600436106100555760003560e01c80630374ab0b1461005a5780630b79143014610083578063298ec208146100c557806361b8ce8c146100e1578063dae7a13c1461010c578063f086a09b14610149575b600080fd5b34801561006657600080fd5b50610081600480360381019061007c9190610982565b610172565b005b34801561008f57600080fd5b506100aa60048036038101906100a59190610a05565b6102f4565b6040516100bc96959493929190610b01565b60405180910390f35b6100df60048036038101906100da9190610b69565b6103d8565b005b3480156100ed57600080fd5b506100f66105b2565b6040516101039190610ba9565b60405180910390f35b34801561011857600080fd5b50610133600480360381019061012e9190610bf0565b6105b8565b6040516101409190610ba9565b60405180910390f35b34801561015557600080fd5b50610170600480360381019061016b9190610c30565b6105dd565b005b4283116101b4576040517f08c379a00000000000000000000000000000000000000000000000000000000081526004016101ab90610cf5565b60405180910390fd5b600081116101f7576040517f08c379a00000000000000000000000000000000000000000000000000000000081526004016101ee90610d87565b60405180910390fd5b6040518060c001604052803373ffffffffffffffffffffffffffffffffffffffff16815260200185815260200184815260200183815260200182815260200182815250600080600254815260200190815260200160002060008201518160000160006101000a81548173ffffffffffffffffffffffffffffffffffffffff021916908373ffffffffffffffffffffffffffffffffffffffff16021790555060208201518160010190816102aa9190610fb3565b5060408201518160020155606082015181600301556080820151816004015560a08201518160050155905050600260008154809291906102e9906110b4565b919050555050505050565b60006020528060005260406000206000915090508060000160009054906101000a900473ffffffffffffffffffffffffffffffffffffffff169080600101805461033d90610dd6565b80601f016020809104026020016040519081016040528092919081815260200182805461036990610dd6565b80156103b65780601f1061038b576101008083540402835291602001916103b6565b820191906000526020600020905b81548152906001019060200180831161039957829003601f168201915b5050505050908060020154908060030154908060040154908060050154905086565b60008060008481526020019081526020016000206002015411610430576040517f08c379a000000000000000000000000000000000000000000000000000000000815260040161042790611148565b60405180910390fd5b426000808481526020019081526020016000206002015411610487576040517f08c379a000000000000000000000000000000000000000000000000000000000815260040161047e906111b4565b60405180910390fd5b6000806000848152602001908152602001600020905081816004015410156104e4576040517f08c379a00000000000000000000000000000000000000000000000000000000081526004016104db90611220565b60405180910390fd5b8181600301546104f49190611240565b3414610535576040517f08c379a000000000000000000000000000000000000000000000000000000000815260040161052c906112ce565b60405180910390fd5b81816005015461054591906112ee565b5081600160003373ffffffffffffffffffffffffffffffffffffffff1673ffffffffffffffffffffffffffffffffffffffff168152602001908152602001600020600085815260200190815260200160002060008282546105a69190611322565b92505081905550505050565b60025481565b6001602052816000526040600020602052806000526040600020600091509150505481565b60008060008581526020019081526020016000206002015411610635576040517f08c379a000000000000000000000000000000000000000000000000000000000815260040161062c90611148565b60405180910390fd5b42600080858152602001908152602001600020600201541061068c576040517f08c379a0000000000000000000000000000000000000000000000000000000008152600401610683906111b4565b60405180910390fd5b81600160003373ffffffffffffffffffffffffffffffffffffffff1673ffffffffffffffffffffffffffffffffffffffff168152602001908152602001600020600085815260200190815260200160002054101561071f576040517f08c379a0000000000000000000000000000000000000000000000000000000008152600401610716906113a2565b60405180910390fd5b81600160003373ffffffffffffffffffffffffffffffffffffffff1673ffffffffffffffffffffffffffffffffffffffff1681526020019081526020016000206000858152602001908152602001600020600082825461077f91906112ee565b9250508190555081600160008373ffffffffffffffffffffffffffffffffffffffff1673ffffffffffffffffffffffffffffffffffffffff168152602001908152602001600020600085815260200190815260200160002060008282546107e69190611322565b92505081905550505050565b6000604051905090565b600080fd5b600080fd5b600080fd5b600080fd5b6000601f19601f8301169050919050565b7f4e487b7100000000000000000000000000000000000000000000000000000000600052604160045260246000fd5b61085982610810565b810181811067ffffffffffffffff8211171561087857610877610821565b5b80604052505050565b600061088b6107f2565b90506108978282610850565b919050565b600067ffffffffffffffff8211156108b7576108b6610821565b5b6108c082610810565b9050602081019050919050565b82818337600083830152505050565b60006108ef6108ea8461089c565b610881565b90508281526020810184848401111561090b5761090a61080b565b5b6109168482856108cd565b509392505050565b600082601f83011261093357610932610806565b5b81356109438482602086016108dc565b91505092915050565b6000819050919050565b61095f8161094c565b811461096a57600080fd5b50565b60008135905061097c81610956565b92915050565b6000806000806080858703121561099c5761099b6107fc565b5b600085013567ffffffffffffffff8111156109ba576109b9610801565b5b6109c68782880161091e565b94505060206109d78782880161096d565b93505060406109e88782880161096d565b92505060606109f98782880161096d565b91505092959194509250565b600060208284031215610a1b57610a1a6107fc565b5b6000610a298482850161096d565b91505092915050565b600073ffffffffffffffffffffffffffffffffffffffff82169050919050565b6000610a5d82610a32565b9050919050565b610a6d81610a52565b82525050565b600081519050919050565b600082825260208201905092915050565b60005b83811015610aad578082015181840152602081019050610a92565b60008484015250505050565b6000610ac482610a73565b610ace8185610a7e565b9350610ade818560208601610a8f565b610ae781610810565b840191505092915050565b610afb8161094c565b82525050565b600060c082019050610b166000830189610a64565b8181036020830152610b288188610ab9565b9050610b376040830187610af2565b610b446060830186610af2565b610b516080830185610af2565b610b5e60a0830184610af2565b979650505050505050565b60008060408385031215610b8057610b7f6107fc565b5b6000610b8e8582860161096d565b9250506020610b9f8582860161096d565b9150509250929050565b6000602082019050610bbe6000830184610af2565b92915050565b610bcd81610a52565b8114610bd857600080fd5b50565b600081359050610bea81610bc4565b92915050565b60008060408385031215610c0757610c066107fc565b5b6000610c1585828601610bdb565b9250506020610c268582860161096d565b9150509250929050565b600080600060608486031215610c4957610c486107fc565b5b6000610c578682870161096d565b9350506020610c688682870161096d565b9250506040610c7986828701610bdb565b9150509250925092565b7f752063616e206f6e6c792063726561746520656e76657420666f72206675747560008201527f7265200000000000000000000000000000000000000000000000000000000000602082015250565b6000610cdf602383610a7e565b9150610cea82610c83565b604082019050919050565b60006020820190508181036000830152610d0e81610cd2565b9050919050565b7f74686572652073686f756420626520736f6d207469636b65747320666f72207360008201527f656c6c0000000000000000000000000000000000000000000000000000000000602082015250565b6000610d71602383610a7e565b9150610d7c82610d15565b604082019050919050565b60006020820190508181036000830152610da081610d64565b9050919050565b7f4e487b7100000000000000000000000000000000000000000000000000000000600052602260045260246000fd5b60006002820490506001821680610dee57607f821691505b602082108103610e0157610e00610da7565b5b50919050565b60008190508160005260206000209050919050565b60006020601f8301049050919050565b600082821b905092915050565b600060088302610e697fffffffffffffffffffffffffffffffffffffffffffffffffffffffffffffffff82610e2c565b610e738683610e2c565b95508019841693508086168417925050509392505050565b6000819050919050565b6000610eb0610eab610ea68461094c565b610e8b565b61094c565b9050919050565b6000819050919050565b610eca83610e95565b610ede610ed682610eb7565b848454610e39565b825550505050565b600090565b610ef3610ee6565b610efe818484610ec1565b505050565b5b81811015610f2257610f17600082610eeb565b600181019050610f04565b5050565b601f821115610f6757610f3881610e07565b610f4184610e1c565b81016020851015610f50578190505b610f64610f5c85610e1c565b830182610f03565b50505b505050565b600082821c905092915050565b6000610f8a60001984600802610f6c565b1980831691505092915050565b6000610fa38383610f79565b9150826002028217905092915050565b610fbc82610a73565b67ffffffffffffffff811115610fd557610fd4610821565b5b610fdf8254610dd6565b610fea828285610f26565b600060209050601f83116001811461101d576000841561100b578287015190505b6110158582610f97565b86555061107d565b601f19841661102b86610e07565b60005b828110156110535784890151825560018201915060208501945060208101905061102e565b86831015611070578489015161106c601f891682610f79565b8355505b6001600288020188555050505b505050505050565b7f4e487b7100000000000000000000000000000000000000000000000000000000600052601160045260246000fd5b60006110bf8261094c565b91507fffffffffffffffffffffffffffffffffffffffffffffffffffffffffffffffff82036110f1576110f0611085565b5b600182019050919050565b7f74686572206973206e6f7420616e79206576656e742000000000000000000000600082015250565b6000611132601683610a7e565b915061113d826110fc565b602082019050919050565b6000602082019050818103600083015261116181611125565b9050919050565b7f6576656e74206973206f76657220000000000000000000000000000000000000600082015250565b600061119e600e83610a7e565b91506111a982611168565b602082019050919050565b600060208201905081810360008301526111cd81611191565b9050919050565b7f7469636b6574206973206e6f74206c6566742000000000000000000000000000600082015250565b600061120a601383610a7e565b9150611215826111d4565b602082019050919050565b60006020820190508181036000830152611239816111fd565b9050919050565b600061124b8261094c565b91506112568361094c565b92508282026112648161094c565b9150828204841483151761127b5761127a611085565b5b5092915050565b7f657468657220206973206e6f7420656e6f756768200000000000000000000000600082015250565b60006112b8601583610a7e565b91506112c382611282565b602082019050919050565b600060208201905081810360008301526112e7816112ab565b9050919050565b60006112f98261094c565b91506113048361094c565b925082820390508181111561131c5761131b611085565b5b92915050565b600061132d8261094c565b91506113388361094c565b92508282019050808211156113505761134f611085565b5b92915050565b7f7520646f6e74206861766520656e676f7568207469636b657473000000000000600082015250565b600061138c601a83610a7e565b915061139782611356565b602082019050919050565b600060208201905081810360008301526113bb8161137f565b905091905056fea264697066735822122069bc11c56caa2dda196b5c37ebbe9153164a10d75ce679a437661114415663d864736f6c63430008110033",
  "immutableReferences": {},
  "source": "// SPDX-License-Identifier: GPL-3.0\r\n\r\npragma solidity >=0.8.0 <0.9.0;\r\n\r\n\r\nstruct Event {\r\n    address organizer;\r\n    string name;\r\n    uint date;\r\n    uint price;\r\n    uint ticketCount;\r\n    uint ticketRemaining;\r\n\r\n}\r\n\r\n   contract  EventContract{\r\n\r\n    mapping (uint=>Event) public events; \r\n\r\n    mapping (address =>mapping(uint=>uint)) public tickets;\r\n\r\n    uint public nextId;\r\n\r\n    function createEvent(string memory _name,uint _date,uint _price,uint _ticketCount) external{\r\n        require (_date>block.timestamp,\"u can only create envet for future \");\r\n        require (_ticketCount>0, \"there shoud be som tickets for sell\");\r\n\r\n       events[nextId] = Event(msg.sender,_name,_date,_price,_ticketCount,_ticketCount);\r\n       nextId++;\r\n    }\r\n    \r\n\r\n    function buyTicket(uint id , uint quantity) external payable {\r\n        require (events[id].date>0 ,\"ther is not any event \");\r\n        require (events[id].date>block.timestamp,\"event is over \");\r\n        Event storage _evnet = events[id];\r\n        require (_evnet.ticketCount >=quantity,\"ticket is not left \");\r\n        require (msg.value ==(_evnet.price*quantity),\"ether  is not enough \");\r\n\r\n       _evnet.ticketRemaining -quantity;\r\n\r\n       tickets[msg.sender][id] += quantity;\r\n\r\n    }\r\n    function transferTicket(uint id,uint quantity,address to) external {\r\n         require (events[id].date>0 ,\"ther is not any event \");\r\n        require (events[id].date<block.timestamp,\"event is over \");\r\n        require (tickets[msg.sender][id] >= quantity,\"u dont have engouh tickets\");\r\n       tickets[msg.sender][id] -= quantity;\r\n       tickets[to][id] += quantity;\r\n\r\n\r\n\r\n     }\r\n    \r\n         }",
  "sourcePath": "C:\\Users\\admin\\Documents\\GitHub\\contractsBlockChain\\contracts\\Event.sol",
  "compiler": {
    "name": "solc",
    "version": "0.8.17+commit.8df45f5f.Emscripten.clang"
  },
  "schemaVersion": "3.4.10",
  "updatedAt": "2022-11-08T07:50:12.839Z",
  "devdoc": {
    "kind": "dev",
    "methods": {},
    "version": 1
  },
  "userdoc": {
    "kind": "user",
    "methods": {},
    "version": 1
  }
}